:100000000C942A000C9447000C9447000C94470071
:100010000C9447000C9447000C9447000C94470044
:100020000C9447000C9447000C9447000C94470034
:100030000C9447000C9447000C9447000C94470024
:100040000C9447000C9447000C9447000C94470014
:100050000C94470011241FBECFE5D4E0DEBFCDBF16
:1000600010E0A0E6B0E0ECE5F6E002C005900D92ED
:10007000A036B107D9F710E0A0E6B0E001C01D92AC
:10008000A036B107E1F70E9456000C942C030C94A3
:10009000000086B1876886B987B1806C87B90895FA
:1000A000369A3699FECF84B195B108950E944900E1
:1000B0000E9417010E947C010F2EF8EEAF2EF3E094
:1000C000BF2EF02D0F2EF4E68F2E9924F02D0F2E3B
:1000D000FAE06F2E7724F02D0F2EFAE0DF2EF02DB0
:1000E0000E9450008C0180E060E00E946301C80122
:1000F000B5010E9418037C01C62FC05D8C2F0E94A1
:100100005F01C701B4010E941803862F805D0E9421
:100110005F018C2F0E945F01C801B3010E94180388
:10012000805D0E945F0188E060E00E946301B80189
:1001300080E090E00E941B0220E030E048EC53E4B5
:100140000E948701C62FD72F082F192F862F9D2F8A
:10015000A02FB12FBC01CD010E94EF01862F805D41
:100160000E945F018EE20E945F018C2F9D2FA02FC5
:10017000B12FBC01CD0120E030E040E251E40E940B
:10018000A9020E94EF01862F6D2D0E940C03892F7A
:10019000805D0E945F018C2F9D2FA02FB12FBC018D
:1001A000CD0120E030E048EC52E40E94A9020E9418
:1001B000EF01862F6D2D0E940C03892F805D0E9418
:1001C0005F018FEF94E3ACE081509040A040E1F7F5
:1001D00000C0000085CF18BA8FEF87BB0895C39A7F
:1001E000E7EEF3E03197F1F700C0000098B39F709D
:1001F00098BB98B38295807F892B88BBC39887EE84
:1002000093E00197F1F700C000000895CF93C82F45
:10021000662311F4C29801C0C29A8C2F82958F7008
:100220000E94EF008C2F0E94EF00CF9108950E9452
:10023000EB0083E00E94EF008FEF99EFA0E0815088
:100240009040A040E1F700C0000083E00E94EF0072
:10025000AFECB7E01197F1F700C0000083E00E9417
:10026000EF008FE19EE40197F1F700C0000082E00B
:100270000E94EF00AFE1BEE41197F1F700C000006B
:1002800088E260E00E9406018FE19EE40197F1F7A9
:1002900000C000008CE060E00E940601AFE1BEE417
:1002A0001197F1F700C0000086E060E00E940601AF
:1002B0008FE19EE40197F1F700C00000089561E02E
:1002C0000E94060108956295660F660F607C860F96
:1002D000806860E00E9406010895CF93DF93EC01EF
:1002E0008881882331F021960E945F0189918823BB
:1002F000D9F7DF91CF91089581E060E00E94060177
:100300008FE39CE90197F1F700C0000008950CD03D
:10031000E6C0DED040F0D5D030F021F45F3F19F0D8
:10032000C7C0511110C1CAC0EBD098F39923C9F3CB
:100330005523B1F3951B550BBB27AA2762177307EB
:10034000840738F09F5F5F4F220F331F441FAA1F9F
:10035000A9F333D00E2E3AF0E0E830D0915050405F
:10036000E695001CCAF729D0FE2F27D0660F771F0D
:10037000881FBB1F261737074807AB07B0E809F0EF
:10038000BB0B802DBF01FF2793585F4F2AF09E3F84
:10039000510568F08DC0D7C05F3FECF3983EDCF3A9
:1003A000869577956795B795F7959F5FC9F7880FFD
:1003B000911D9695879597F90895E1E0660F771F4F
:1003C000881FBB1F621773078407BA0720F0621BE0
:1003D000730B840BBA0BEE1F88F7E095089598D045
:1003E00088F09F5790F0B92F9927B751A0F0D1F01E
:1003F000660F771F881F991F1AF0BA95C9F712C0A8
:10040000B13081F09FD0B1E008959CC0672F782F64
:100410008827B85F39F0B93FCCF386957795679513
:10042000B395D9F73EF490958095709561957F4F7F
:100430008F4F9F4F0895E89409C097FB3EF4909525
:100440008095709561957F4F8F4F9F4F9923A9F0AD
:10045000F92F96E9BB279395F6958795779567953C
:10046000B795F111F8CFFAF4BB0F11F460FF1BC080
:100470006F5F7F4F8F4F9F4F16C0882311F096E913
:1004800011C0772321F09EE8872F762F05C06623C1
:1004900071F096E8862F70E060E02AF09A95660F7A
:1004A000771F881FDAF7880F9695879597F9089533
:1004B00097F99F6780E870E060E008959FEF80EC17
:1004C000089500240A9416161706180609060895BA
:1004D00000240A9412161306140605060895092E20
:1004E0000394000C11F4882352F0BB0F40F4BF2B8F
:1004F00011F460FF04C06F5F7F4F8F4F9F4F0895CF
:1005000057FD9058440F551F59F05F3F71F04795C4
:10051000880F97FB991F61F09F3F79F087950895A9
:10052000121613061406551FF2CF4695F1DF08C0C8
:10053000161617061806991FF1CF869571056105E5
:1005400008940895E894BB2766277727CB0197F98D
:1005500008950BD0C4CFB5DF28F0BADF18F095238B
:1005600009F0A6CFABCF1124EECFCADFA0F3959F41
:10057000D1F3950F50E0551F629FF001729FBB278A
:10058000F00DB11D639FAA27F00DB11DAA1F649F36
:100590006627B00DA11D661F829F2227B00DA11DE9
:1005A000621F739FB00DA11D621F839FA00D611D6F
:1005B000221F749F3327A00D611D231F849F600D90
:1005C000211D822F762F6A2F11249F5750408AF0C9
:1005D000E1F088234AF0EE0FFF1FBB1F661F771F55
:1005E000881F91505040A9F79E3F510570F060CF91
:1005F000AACF5F3FECF3983EDCF38695779567953D
:10060000B795F795E7959F5FC1F7FE2B880F911D72
:100610009695879597F90895991B79E004C0991FDD
:10062000961708F0961B881F7A95C9F7809508954C
:10063000AA1BBB1B51E107C0AA1FBB1FA617B70708
:1006400010F0A61BB70B881F991F5A95A9F7809524
:0C0650009095BC01CD010895F894FFCFF7
:00000001FF
