:100000000C944A000C9467000C9467000C946700F1
:100010000C9467000C9467000C9467000C946700C4
:100020000C9467000C9467000C9467000C946700B4
:100030000C9467000C9467000C9467000C946700A4
:100040000C9467000C9467000C9467000C94670094
:100050000C94670041A042A1E045A3A4A5A64BA72C
:100060004D484FA8504354A9AA58E1ABACE2ADAEFD
:10007000ADAFB0B161B2B3B4E365B6B7B8B9BABBAE
:10008000BCBD6FBE7063BF79E478E5C0C1E6C2C392
:10009000C4C5C6C711241FBECFE5D4E0DEBFCDBFA7
:1000A00010E0A0E6B0E0E0E5F3E002C005900D92BC
:1000B000A836B107D9F720E0A8E6B0E001C01D924C
:1000C000A737B207E1F70E947D010C94A6010C94BA
:1000D00000008FEF8ABB1BBA90EE97BB9FE198BBE5
:1000E00084BB15BA90EB91BB9FE492BB9CE695BD97
:1000F00012BC99B799BF83BD80E888B92FEF82E51C
:1001000097E0215080409040E1F700C000000E943D
:100110001C017894089587B3806F87BB88B38F7074
:1001200088BB0895C19A85E08A95F1F70000C198CF
:100130000895CF9387B38F7087BB88B3806F88BBD8
:10014000C29AC19A00000000C6B3C1980000000026
:100150000E94920000000000C7FDF3CFC298CF912B
:100160000895CF93DF93D82F0E948B008D2F829517
:100170008F70CD2FCF7080FDC49A869580FDC59A73
:10018000869580FDC69A869509F0C79A0E949200CE
:100190000E948B00D0FDC49A8C2F869580FDC59A55
:1001A000869580FDC69A869509F0C79A0E949200AE
:1001B00087B38F7087BB88B38F7088BBDF91CF9177
:1001C0000895CF93C82F0E9499008C2FCF910C9443
:1001D000B100CF93C82F0E949900C39AC03C30F061
:1001E000E0E4EC0FF0E0EC5AFF4FC4918C2F0E943A
:1001F000B100C398CF910895613009F4805C8068A4
:100200000C94E1000F931F93CF938C01862F642FE2
:100210000E94FC000115110559F0C0E0F801EC0F37
:10022000F11D8081882321F00E94E900CF5FF6CF85
:10023000CF911F910F910895CF932FEF81EE94E00E
:10024000215080409040E1F700C0000087B38E60ED
:1002500087BB88B3817F88BB0E948B00C3E088B3D3
:10026000806388BB0E9492008FE19EE40197F1F7C2
:1002700000C00000C15099F70E9499000E948B00B5
:10028000C59A0E94920088E20E94E1008CE00E94E0
:10029000E10086E00E94E10082E00E94E10081E04E
:1002A000CF910C94E10088E690E00895843640F008
:1002B0002CE9280F2436D0F028E3280F92E017C04D
:1002C00020E290E29093680090E08A3018F09F5FFF
:1002D0008A50FBCF992311F020E3290F2093690066
:1002E000805D80936A0010926B00089591E0905DAC
:1002F000822F20E3E7CF0C9456010E9469000E94F0
:1003000053019093750080937400809176000E9451
:100310007B0141E060E080917400909175000E9443
:100320000201809176008F5F8093760040E060E06C
:1003300080E690E00E9402012FEF83EC99E02150CB
:1003400080409040E1F700C00000DFCFF894FFCF7D
:08035000CFF0E8E2E5F2000045
:00000001FF
