:1000000012C02CC02BC02AC029C028C027C026C0BF
:1000100025C024C023C022C021C020C01FC01EC0D4
:100020001DC01CC01BC011241FBECFE5D4E0DEBF25
:10003000CDBF10E0A0E6B0E0EAEFF2E002C005902C
:100040000D92A036B107D9F710E0A0E6B0E001C0EC
:100050001D92A736B107E1F702D04DC1D1CFF3D041
:1000600020D1F4D081B125D180EDF9D081B121D159
:1000700080E0F5D081B11DD180E0DFD0F0D081B13A
:1000800018D18DE1DAD0EBD081B113D184E1D5D094
:10009000E6D081B10ED181E0D0D0E1D081B109D1DB
:1000A00087E1CBD0DCD081B104D18AE0C6D0D7D0F3
:1000B00081B1FFD081E1C1D0D2D081B1FAD0CCD012
:1000C000CAE080E060EDD2D08FEF99E6A8E18150E0
:1000D0009040A040E1F700C00000B8D081EDBFD053
:1000E000D2D080936400CFD080936200CCD0809334
:1000F0006100C9D080936500C6D080936600C3D0EC
:1001000080936000C7D080936300A6D08091640084
:1001100089D0809364008091620084D080936200D3
:10012000809161007FD080936100809165007AD0DA
:10013000809365008091660075D080936600809101
:10014000600070D080936000809163006BD08093DA
:100150006300809166006C2FC2D0805DAAD0809130
:1001600066006C2FBCD0892F805DA3D08EE2A1D019
:10017000809160006C2FB3D0805D9BD08091600037
:100180006C2FADD0892F805D94D08EE292D080917B
:1001900063006C2FA4D0805D8CD0809163006C2FA5
:1001A0009ED0892F805D85D080E283D08DE281D082
:1001B00080916500805D7DD08DE27BD080E279D03A
:1001C00080E277D0809161006C2F89D0805D71D002
:1001D000809161006C2F83D0892F805D6AD08AE383
:1001E00068D0809162006C2F7AD0805D62D080915F
:1001F00062006C2F74D0892F805D5BD08AE359D068
:10020000809164006C2F6BD0805D53D0809164002E
:100210006C2F65D0892F805D4CD08DE04AD08C2F1B
:1002200048D04FCF982F92959F70990F292F220F6A
:10023000220F920F8F70890F08956AE050D0829537
:10024000807F892B089580E280B9089584EA86BF73
:1002500006B607FEFDCF089584E986BF089583B9E9
:1002600084E886BF06B607FEFDCF0895CF93DF93DF
:10027000C82FD62FEBDF8D2FF2DF8C2FF0DFECDFD6
:10028000DF91CF91089584EC86BF06B607FEFDCFBF
:1002900083B1089584E886BF06B607FEFDCF83B11B
:1002A000089510BC83E389B988E98AB986EB80BDDB
:1002B00008955D9BFECF8CB90895CF93DF93EC0139
:1002C0008881882329F02196F4DF89918823E1F73A
:1002D0008DE0EFDF8AE0EDDFDF91CF910895991B8C
:1002E00079E004C0991F961708F0961B881F7A952D
:0A02F000C9F780950895F894FFCF38
:00000001FF
