:1000000012C02CC02BC02AC029C028C027C026C0BF
:1000100025C024C023C022C021C020C01FC01EC0D4
:100020001DC01CC01BC011241FBECFE5D4E0DEBF25
:10003000CDBF10E0A0E6B0E0E8ECF2E002C0059031
:100040000D92A036B107D9F710E0A0E6B0E001C0EC
:100050001D92A036B107E1F7B3D034C1D1CF8FB72D
:10006000F8948A9AE9ECF3E03197F1F700C00000C8
:100070008A98FDEAFA95F1F7000090B38FBFE7E4A4
:10008000F3E03197F1F700C0000081E092FD80E0DD
:1000900008959FB7F8948A9A25E02A95F1F7000011
:1000A0008A9882E28A95F1F700C080B328E72A9502
:1000B000F1F79FBF90E08470907095958795959526
:1000C000879508951F93CF93DF93C0E0D0E010E0B1
:1000D000E0DF90E00C2E02C0880F991F0A94E2F72F
:1000E000182B2196C830D10599F7812FDF91CF9138
:1000F0001F9108959FB7F8948A9A25E02A95F1F701
:10010000000081118A988DEA8A95F1F700008A989B
:100110009FBF0895EF92FF920F931F93CF93DF93AA
:1001200000E010E0EE24FF24E394C82FD0E0C701E4
:10013000002E02C0880F991F0A94E2F79C012C231D
:100140003D238217930719F481E0D4DF02C080E0D9
:10015000D1DF0F5F1F4F0830110549F7DF91CF91B5
:100160001F910F91FF90EF900895CF9378DF81302A
:10017000E1F48CECCFDF84E4CDDF8FE79FE4A2E1F4
:1001800081509040A040E1F700C0000068DF8CEC97
:10019000C1DF8EEBBFDF96DFC82F94DF382F20E062
:1001A0008C2F90E0822B932B02C080E090E0CF91C7
:1001B0000895929582958F7089279F708927089559
:1001C000CF93DF93CDB7DEB72A970FB6F894DEBF93
:1001D0000FBECDBF16D0C9DFECDF90E0BE016F5F70
:1001E0007F4F4AE050E02BD0CE01019616D08FEF22
:1001F00099E6A8E181509040A040E1F700C00000DE
:10020000EACF10BC83E389B988E98AB986EB80BD5F
:1002100008955D9BFECF8CB90895CF93DF93EC01D9
:100220008881882329F02196F4DF89918823E1F7DA
:100230008DE0EFDF8AE0EDDFDF91CF910895FB01E4
:100240009F01E8944230BCF04532ACF44A3029F4C6
:1002500097FB1EF4909581959F4F642F77271ED0B2
:10026000805D8A330CF0895D8193CB010097A9F7FB
:1002700016F45DE251931082C90100C0DC01FC015B
:10028000672F71917723E1F7329704C07C916D93CA
:1002900070836291AE17BF07C8F30895AA1BBB1BFA
:1002A00051E107C0AA1FBB1FA617B70710F0A61B76
:1002B000B70B881F991F5A95A9F780959095BC0197
:0802C000CD010895F894FFCF71
:00000001FF
