:1000000053C06DC06CC06BC06AC069C068C067C0B7
:1000100066C065C064C063C062C061C060C05FC0CC
:100020005EC05DC05CC007634236B79BD8A71A3973
:10003000685618AEBAAB558C1D3CB7CC5763BD6D36
:10004000EDFD753EF6177231BF000000803F0800DD
:100050000000BE922449123EABAAAA2ABECDCCCC47
:100060004C3E00000080BEABAAAAAA3E00000000E1
:10007000BF000000803F0000000000084178D3BBB3
:100080004387D1133D190E3CC3BD4282AD2B3E6860
:10009000EC8276BED98FE1A93E4C80EFFFBE01C451
:1000A000FF7F3F000000000011241FBECFE5D4E019
:1000B000DEBFCDBF10E0A0E6B0E0E6EEF0E102C0AA
:1000C00005900D92A036B107D9F710E0A0E6B0E098
:1000D00001C01D92A739B107E1F78CD302C890CFB8
:1000E000CF93DF93C82F1BD38EEE39D38C2F37D30A
:1000F000DAD215D38FEE33D380E054D3D82F81E0FA
:1001000051D3C82FD0D23D2F20E0C9018C0F911DB3
:10011000DF91CF9108958AEAE3DF90937E00809388
:100120007D008CEADDDF90938600809385008EEA67
:10013000D7DF909396008093950080EBD1DF90936A
:100140008A008093890082EBCBDF909384008093B8
:10015000830084EBC5DF909382008093810086EB5F
:10016000BFDF9093800080937F0088EBB9DF90938E
:100170007A00809379008AEBB3DF90937C008093C0
:100180007B008CEBADDF90938C0080938B008EEB2B
:10019000A7DF90938800809387000895C0D28EEEE9
:1001A000DED284EFDCD28EE2DAD27DD28FE097E22B
:1001B0000197F1F700C0000086EF92DFA0E0B0E009
:1001C0008093640090936500A0936600B0936700ED
:1001D0000895A5D28EEEC3D284EFC1D284EFBFD2F0
:1001E00062D28FE19BEC0197F1F700C0000097D23B
:1001F0008EEEB5D286EFB3D256D291D28FEEAFD279
:1002000080E0D0D290E0A0E0B0E0809391009093A5
:100210009200A0939300B093940080E0C3D290E04A
:10022000A0E0B0E080938D0090938E00A0938F00AB
:10023000B093900081E0B6D290E0A0E0B0E080936F
:10024000750090937600A0937700B09378002BD23E
:1002500040919100509192006091930070919400B0
:10026000BA015527442780918D0090918E00A0916E
:100270008F00B0919000BA2FA92F982F8827840F54
:10028000951FA61FB71F4091750050917600609191
:10029000770070917800840F951FA61FB71F689490
:1002A00014F8B695A795979587951694D1F78093EE
:1002B000600090936100A0936200B0936300089582
:1002C0004F925F926F927F928F929F92AF92BF9266
:1002D000CF92DF92EF92FF920F931F93CF93DF9312
:1002E000CDB7DEB72C970FB6F894DEBF0FBECDBFEB
:1002F0004C018B0153DFC0906400D0906500E0900A
:100300006600F090670065DF209160003091610029
:1003100040916200509163002D833E834F83588744
:100320008091810090918200A0E0B0E0A701960149
:10033000281B390B4A0B5B0BCA01B90120918300C2
:100340003091840040E050E02DD66B017C010B2EF3
:10035000BFE0F594E794D794C794BA95D1F7B02D40
:1003600060918B0070918C00CB01AA2797FDA0951E
:10037000BA2FBC01CD01052E5BE0660F771F881FE9
:10038000991F5A95D1F7502D209187003091880000
:10039000442737FD4095542F2C0D3D1D4E1D5F1DEC
:1003A00042D6C20ED31EE41EF51ED701C601089622
:1003B000A11DB11D689413F8B595A79597958795DC
:1003C0001694D1F7F40180839183A283B38320E64E
:1003D00030EF4FEF5FEFC20ED31EE41EF51EC701D4
:1003E000B601A7019601DED5DC01CB019C01AD0170
:1003F000012E1CE055954795379527951A95D1F70D
:10040000102D29833A834B835C8360919500709112
:100410009600882777FD8095982FA7019601C2D571
:100420004B015C01072E7DE0B594A79497948794C7
:100430007A95D1F7702D20917F003091800044276C
:1004400037FD4095542F69817A818B819C81AAD593
:10045000DC01CB01CD01BB2797FDB095AB2F880DFB
:10046000991DAA1DBB1D0296A11DB11DB595A7958D
:1004700097958795B595A79597958795BC01CD01DB
:10048000605070488F4F9F4F2091890030918A00B3
:1004900040E050E087D5DC01CB019C01AD01012E8D
:1004A0001FE056954795379527951A95D1F7102D4A
:1004B00029873A874B875C8740907D0050907E006B
:1004C000662457FC6094762C440C551C661C771CE3
:1004D000440C551C661C771C6091790070917A0061
:1004E000882777FD8095982F29813A814B815C81FF
:1004F00059D54B015C01072E7BE0B594A7949794E6
:1005000087947A95D1F7702D60918500709186005F
:10051000882777FD8095982FA701960143D5DC01A8
:10052000CB01072E7BE0B595A795979587957A9592
:10053000D1F7702D880E991EAA1EBB1E840C951C27
:10054000A61CB71C880C991CAA1CBB1C6D817E8143
:100550008F819885681979098A099B092AE638E10B
:1005600040E050E01FD5992364F0660F771F881F85
:10057000991F29853A854B855C8533D569017A01B8
:100580000BC029853A854B855C852BD569017A019D
:10059000CC0CDD1CEE1CFF1C5527F7FC5A954F2D8B
:1005A0003E2D2D2DCA01B901FDD42EED3BE040E0DA
:1005B00050E0F8D44C01BB2497FCB094AB2CC7019D
:1005C000B60123E433EE4FEF5FEFECD4DC01CB0157
:1005D000CD01BB2797FDB095AB2F880D991DAA1DA6
:1005E000BB1D8153914FAF4FBF4F689413F8B59522
:1005F000A795979587951694D1F7C80ED91EEA1E30
:10060000FB1ED801CD92DD92ED92FC9213972C96B1
:100610000FB6F894DEBF0FBECDBFDF91CF911F9113
:100620000F91FF90EF90DF90CF90BF90AF909F9091
:100630008F907F906F905F904F9008950F931F93CE
:100640005DD220E836EE45EC57E4BDD122E63BED25
:1006500042E45EE342D3B62FA72F382F292F60E064
:1006600070E080E89FE3422F0B2F1A2F232F342FA7
:10067000A901980143D120E03AE24DE257E4CAD201
:1006800020E030E048EC52E4C5D205D2DC01CB01D9
:100690008093680090936900A0936A00B0936B0008
:1006A0001F910F910895A59A8AE18A95F1F700C0EC
:1006B000A49A8AE18A95F1F700C0A5988AE18A9503
:1006C000F1F700C0A4988AE18A95F1F700C0109272
:1006D00074009C9905C0809174008F5F80937400B2
:1006E0009D9905C0809174008F5F809374008AE1AA
:1006F0008A95F1F700C08AE18A95F1F700C08AE196
:100700008A95F1F700C08AE18A95F1F700C0089553
:10071000A498A598AC98AD98C6DFC5DF0895A49AB3
:100720008AE18A95F1F700C0A59A8AE18A95F1F7E6
:1007300000C00895A4988AE18A95F1F700C0A598B1
:100740008AE18A95F1F700C0A49A8AE18A95F1F7C7
:1007500000C0A59A8AE18A95F1F700C0089598E053
:10076000882314F0A49A01C0A4982AE12A95F1F7ED
:1007700000C0A5982AE12A95F1F700C0A59A880F34
:10078000915071F7A4988AE18A95F1F700C0A59875
:100790002AE12A95F1F700C093B3A59A81E094FF6E
:1007A00080E00895282FA49898E080E0880FA5980D
:1007B0003AE13A95F1F700C09C998160A59A3AE137
:1007C0003A95F1F700C0915089F7222311F4A49AC9
:1007D00001C0A4989AE19A95F1F700C0A5983AE172
:1007E0003A95F1F700C0A59A9AE19A95F1F700C001
:1007F000A4980895CF93DF93CDB7DEB764970FB673
:10080000F894DEBF0FBECDBF83DF85DC59D000E793
:1008100010E00F2EFCE66F2EF0E07F2EF02D0F2E55
:10082000FAE08F2EF0E09F2EF0E0AF2EF0E0BF2E2A
:10083000F02DC801B30144DD60916C0070916D0032
:1008400080916E0090916F00F9DE60917000709160
:1008500071008091720090917300A5019401E3D31F
:1008600069017A0160916C0070916D0080916E0059
:1008700090916F0043D12FE632E545E053E4A3D0D9
:100880000AD1DC01CB01BE016F5F7F4F4AE050E02F
:10089000E5D3CE01019620D0C601BE01655F7F4F32
:1008A0004AE050E0DBD3CE010B9616D08FEF99E6ED
:1008B000A8E181509040A040E1F700C00000B9CF0E
:1008C00010BC83E389B988E98AB986EB80BD0895B5
:1008D0005D9BFECF8CB90895CF93DF93EC018881A7
:1008E000882329F02196F4DF89918823E1F78DE0B0
:1008F000EFDF8AE0EDDFDF91CF9108955058BB27FD
:10090000AA270ED04DC13ED130F043D120F031F4B2
:100910009F3F11F41EF433C10EF4E095E7FB29C1AB
:10092000E92F4FD180F3BA17620773078407950741
:1009300018F071F49EF567C10EF4E0950B2EBA2FF6
:10094000A02D0B01B90190010C01CA01A0011124D5
:10095000FF27591B99F0593F50F4503E68F11A1681
:10096000F040A22F232F342F4427585FF3CF469512
:1009700037952795A795F0405395C9F77EF41F1634
:10098000BA0B620B730B840BBAF09150A1F0FF0FFE
:10099000BB1F661F771F881FC2F70EC0BA0F621FEA
:1009A000731F841F48F4879577956795B795F795DA
:1009B0009E3F08F0B3CF9395880F08F09927EE0F6C
:1009C0009795879508950CD0EBC0E3D040F0DAD02E
:1009D00030F021F45F3F19F0CCC0511115C1CFC0E8
:1009E000F0D098F39923C9F35523B1F3951B550B18
:1009F000BB27AA2762177307840738F09F5F5F4FF2
:100A0000220F331F441FAA1FA9F333D00E2E3AF032
:100A1000E0E830D091505040E695001CCAF729D04C
:100A2000FE2F27D0660F771F881FBB1F261737079B
:100A30004807AB07B0E809F0BB0B802DBF01FF27CB
:100A400093585F4F2AF09E3F510568F092C0DCC07A
:100A50005F3FECF3983EDCF3869577956795B79505
:100A6000F7959F5FC9F7880F911D9695879597F920
:100A70000895E1E0660F771F881FBB1F6217730799
:100A80008407BA0720F0621B730B840BBA0BEE1FAE
:100A900088F7E095089504D06894B111B5C0089521
:100AA00098D088F09F5790F0B92F9927B751A0F0B0
:100AB000D1F0660F771F881F991F1AF0BA95C9F7F2
:100AC00012C0B13081F09FD0B1E008959CC0672F73
:100AD000782F8827B85F39F0B93FCCF386957795A2
:100AE0006795B395D9F73EF490958095709561958B
:100AF0007F4F8F4F9F4F0895E89409C097FB3EF4B6
:100B000090958095709561957F4F8F4F9F4F99235A
:100B1000A9F0F92F96E9BB279395F69587957795D8
:100B20006795B795F111F8CFFAF4BB0F11F460FF98
:100B30001BC06F5F7F4F8F4F9F4F16C0882311F0F0
:100B400096E911C0772321F09EE8872F762F05C004
:100B5000662371F096E8862F70E060E02AF09A959F
:100B6000660F771F881FDAF7880F9695879597F994
:100B7000089597F99F6780E870E060E008959FEF1F
:100B800080EC089500240A94161617061806090624
:100B9000089500240A9412161306140605060895F3
:100BA000092E0394000C11F4882352F0BB0F40F47B
:100BB000BF2B11F460FF04C06F5F7F4F8F4F9F4FBB
:100BC000089557FD9058440F551F59F05F3F71F03D
:100BD0004795880F97FB991F61F09F3F79F08795A4
:100BE0000895121613061406551FF2CF4695F1DF2D
:100BF00008C0161617061806991FF1CF86957105BD
:100C0000610508940895E894BB2766277727CB01F0
:100C100097F908950BD0C4CFB5DF28F0BADF18F0EC
:100C2000952309F0A6CFABCF1124EECFCADFA0F3F6
:100C3000959FD1F3950F50E0551F629FF001729F71
:100C4000BB27F00DB11D639FAA27F00DB11DAA1F90
:100C5000649F6627B00DA11D661F829F2227B00DDD
:100C6000A11D621F739FB00DA11D621F839FA00D68
:100C7000611D221F749F3327A00D611D231F849FB8
:100C8000600D211D822F762F6A2F11249F5750400F
:100C90008AF0E1F088234AF0EE0FFF1FBB1F661FAA
:100CA000771F881F91505040A9F79E3F510570F063
:100CB00060CFAACF5F3FECF3983EDCF38695779543
:100CC0006795B795F795E7959F5FC1F7FE2B880F5E
:100CD000911D9695879597F90895FA01EE0FFF1FDC
:100CE00030962105310599F16115710561F480385F
:100CF000BFE39B0749F168949038810561F0803823
:100D0000BFEF9B0741F0992342F5FF3FE105310515
:100D1000210511F1E8940894E795D901AA2329F453
:100D2000AB2FBE2FF85FD0F310C0FF5F70F4A69515
:100D3000E0F7F73950F019F0FF3A38F49F779F93B6
:100D40000CD00F9007FC905808953EF018CF60E04B
:100D500070E080E89FE308954FE79F775F934F939C
:100D60003F932F939ED02F913F914F915F9152DFF0
:100D700005C019F40EF0FDCE46CF01CF2ADFC8F32F
:100D80009638C0F707F80F92E8942BE33AEA48EB5D
:100D90005FE74EDF0F920F920F924DB75EB70F9243
:100DA000C0D0E6E2F0E016D04F915F91EF91FF9155
:100DB000E595EE1FFF1F49F0FE57E0684427EE0F50
:100DC000441FFA95E1F74195550B32D00F9007FE7D
:100DD00026C00895DF93CF931F930F93FF92EF9256
:100DE000DF927B018C01689405C0DA2EEF011EDFD3
:100DF000FE01E894A5912591359145915591AEF369
:100E0000EF018EDDFE019701A801DA9479F7DF90FA
:100E1000EF90FF900F911F91CF91DF9108959B016B
:100E2000AC0160E070E080E89FE3CDCDA2CEACC025
:100E3000D0DEE8F39923D9F3940F511DBBF3915001
:100E4000504094F059F0882332F0660F771F881FC6
:100E500091505040C1F79E3F510544F7880F911DB6
:100E60009695879597F908955F3FACF0983E9CF072
:100E7000BB27869577956795B79508F4B1609395EC
:100E8000C1F7BB0F58F711F460FFE8CF6F5F7F4FDA
:100E90008F4F9F4FE3CFB8CE0EF076C070CE6894E0
:100EA00068CE97DEC8F39923D1F3C6F3DF93CF93CF
:100EB0001F930F93FF92C92FDD2788232AF02197D4
:100EC000660F771F881FDAF720E030E040E85FEB1D
:100ED0009FE3883920F0803E30F021968F770FDD38
:100EE000EEE4F0E003C00BDDEBE7F0E073DF8B0135
:100EF000BE01EC01FB2E6F5771097595771F880BAA
:100F0000990BFCDD28E132E741E35FE38FDEAF2D93
:100F10009801AE01FF900F911F91CF91DF9100DDFD
:100F20003FCEFA01DC01AA0FBB1F9B01AC01BF57EA
:100F300028F422273327442750781FC0B75188F45C
:100F4000AB2F0024469537952795011CA395D2F326
:100F5000002069F0220F331F441FB395DAF30DD040
:100F6000CDCC61307105A0E88A07B94630F49B0109
:100F7000AC016627772788279078309621F0208368
:100F800031834283538308959F3F31F0915020F481
:100F9000879577956795B795880F911D9695879555
:100FA00097F90895629FD001739FF001829FE00D31
:100FB000F11D649FE00DF11D929FF00D839FF00DD8
:100FC000749FF00D659FF00D9927729FB00DE11D84
:100FD000F91F639FB00DE11DF91FBD01CF01112461
:100FE0000895A1E21A2EAA1BBB1BFD010DC0AA1F6A
:100FF000BB1FEE1FFF1FA217B307E407F50720F082
:10100000A21BB30BE40BF50B661F771F881F991FFC
:101010001A9469F760957095809590959B01AC0145
:10102000BD01CF01089597FB092E05260ED057FD6F
:1010300004D0D7DF0AD0001C38F450954095309585
:1010400021953F4F4F4F5F4F0895F6F7909580954C
:10105000709561957F4F8F4F9F4F0895FB019F01C2
:10106000E8944230BCF04532ACF44A3029F497FBA6
:101070001EF4909581959F4F642F77271ED0805D39
:101080008A330CF0895D8193CB010097A9F716F4A0
:101090005DE251931082C90100C0DC01FC01672FA1
:1010A00071917723E1F7329704C07C916D9370833F
:1010B0006291AE17BF07C8F30895AA1BBB1B51E18D
:1010C00007C0AA1FBB1FA617B70710F0A61BB70BB8
:1010D000881F991F5A95A9F780959095BC01CD015D
:0610E0000895F894FFCF13
:00000001FF
