S01200004C4344202B204D656E752E737265633F
S11300000C942A000C9447000C9447000C9447006D
S11300100C9447000C9447000C9447000C94470040
S11300200C9447000C9447000C9447000C94470030
S11300300C9447000C9447000C9447000C94470020
S11300400C9447000C9447000C9447000C94470010
S11300500C94470011241FBECFE5D4E0DEBFCDBF12
S113006011E0A0E6B0E0E4ECF9E002C005900D92E6
S1130070A034B107D9F721E0A0E4B1E001C01D929A
S1130080A634B207E1F70E947F000C94E0040C94BC
S11300900000C7988FEF99EFA0E081509040A040F6
S11300A0E1F700C00000C79A0895A89A81E090E0A3
S11300B090934101809340010895A89810924101C2
S11300C0109240010895A99A81E090E09093430131
S11300D0809342010895A99810924301109242011D
S11300E00895AA9A81E090E0909345018093440199
S11300F00895AA9810924501109244010895CF934F
S1130100DF93CDB7DEB7C45ED0400FB6F894DEBF40
S11301100FBECDBF87B3807F87BB88B38F6088BB9A
S1130120BF9AC79A84B3876084BB85B385BB8F9A13
S11301309798DE015596EFE6F0E089E001900D9284
S11301408150E1F7FE017E9687E0DF011D928A95DA
S1130150E9F7DE019596EFE7F0E089E001900D9272
S11301608150E1F7FE01BE9687E0DF011D928A957A
S1130170E9F7DE01D596EFE8F0E087E001900D9213
S11301808150E1F7FE01FC9689E0DF011D928A951A
S1130190E9F7DE01AB5BBF4FEFE9F0E087E00190E8
S11301A00D928150E1F7E5E4F0E0EC0FFD1F379686
S11301B089E0DF011D928A95E9F7DE01AB5ABF4F52
S11301C0EFEAF0E087E001900D928150E1F7E5E578
S11301D0F0E0EC0FFD1F379689E0DF011D928A9550
S11301E0E9F7DE01AB59BF4FEFEBF0E087E0019098
S11301F00D928150E1F7E5E6F0E0EC0FFD1F379634
S113020089E0DF011D928A95E9F7DE01AB58BF4F03
S1130210EFECF0E087E001900D928150E1F7E5E723
S1130220F0E0EC0FFD1F379689E0DF011D928A95FF
S1130230E9F7DE01AB57BF4FEFEDF0E087E0019047
S11302400D928150E1F7E5E8F0E0EC0FFD1F3796E1
S113025089E0DF011D928A95E9F7DE01AB56BF4FB5
S1130260EFEEF0E087E001900D928150E1F7E5E9CF
S1130270F0E0EC0FFD1F379689E0DF011D928A95AF
S1130280E9F7DE01AB55BF4FEFEFF0E088E00190F6
S11302900D928150E1F7E5EAF0E0EC0FFD1F38968E
S11302A088E0DF011D928A95E9F7DE01AB54BF4F68
S11302B0EFE0F1E088E001900D928150E1F7E5EB89
S11302C0F0E0EC0FFD1F389688E0DF011D928A955F
S11302D0E9F7DE01AB53BF4FEFE1F1E087E00190B6
S11302E00D928150E1F7E5ECF0E0EC0FFD1F37963D
S11302F089E0DF011D928A95E9F7DE01AB52BF4F19
S1130300EFE2F1E087E001900D928150E1F7E5ED35
S1130310F0E0EC0FFD1F379689E0DF011D928A950E
S1130320E9F70E94FF030E942B040E94980480E0D6
S113033060E00E947504CE018B5A9F4F0E947E0498
S113034080E061E00E947504CE0185960E947E04DF
S11303500E948D04EE24FF240AE010E00F2EF0E644
S1130360CF2EF0E0DF2EF02DC701BE016F5F7F4F6F
S11303704AE050E00E94A004B19906C08FEC97E0D7
S11303800197F1F700C00000B1991BC00A301105B4
S113039049F00431110531F00E31110519F008321C
S11303A0110511F4065F1F4F0E948D040B301105D7
S11303B031F00531110519F00F31110511F40F5FFA
S11303C01F4FB09906C0AFECB7E01197F1F700C02A
S11303D00000B0991DC00431110549F00E3111051A
S11303E031F00832110519F00233110511F40A50E5
S11303F010400E948D040C30110531F006311105B6
S113040019F00032110511F4015010400E948D04BE
S1130410B29906C08FEC97E00197F1F700C0000095
S1130420B29915C00E9449000A30110561F00431E7
S1130430110549F00E31110531F00832110519F09A
S11304400233110511F40F5F1F4F0E948D04B399FD
S113045006C0AFECB7E01197F1F700C00000B39904
S11304601DC00B30110549F00531110531F00F3174
S1130470110519F00932110511F4015010400E94C0
S11304808D040C30110531F00631110519F00032DC
S1130490110511F4025010400E948D04063111051B
S11304A009F401C107311105B8F40C30110509F440
S11304B0AFC00D30110540F40A30110549F10B307D
S11304C0110509F08BC17FC00431110599F1053183
S11304D0110509F083C1C2C00032110509F42EC10F
S11304E00132110540F40E311105B1F10F3111053E
S11304F009F074C1FEC00932110509F445C1023383
S1130500110509F44EC00832110509F067C136C05F
S113051080E060E00E947504CE018B5A9F4F0E94D8
S11305207E0480E061E00E947504CE0185960E94FD
S11305307E0454C180E060E00E947504CE014596BB
S11305400E947E0480E061E00E947504CE018B5914
S11305509F4F0E947E0442C180E060E00E947504C7
S1130560CE0185960E947E0480E061E00E947504BD
S1130570CE018B589F4F0E947E0430C180E060E022
S11305800E947504CE018B579F4F0E947E0480E029
S113059061E00E947504CE018B5B9F4F0E947E0434
S11305A01DC180E060E00E947504CE01C5960E94E2
S11305B07E0480E061E00E947504CE018B569F4F5B
S11305C00E947E040BC18FE59AEE0197F1F700C0FB
S11305D000008091400190914101009711F40CE0DA
S11305E010E080E060E00E947504CE018B529F4FC2
S11305F00E947E0480E061E00E947504CE018B5568
S11306009F4F0E947E04B299E9C00E945D00E6C03B
S1130610AFE5BAEE1197F1F700C0000080914001F8
S1130620909141018130910511F40BE010E080E0DC
S113063060E00E947504CE018B549F4F0E947E049B
S113064080E061E00E947504CE018B539F4F0E94AD
S11306507E04B299C3C00E945500C0C08FE59AEED3
S11306600197F1F700C0000080914201909143018D
S1130670009711F406E110E080E060E00E94750448
S1130680CE018B529F4F0E947E0480E061E00E9465
S11306907504CE018B559F4F0E947E04B2999EC073
S11306A00E946B009BC0AFE5BAEE1197F1F700C052
S11306B0000080914201909143018130910511F431
S11306C005E110E080E060E00E947504CE018B54E7
S11306D09F4F0E947E0480E061E00E947504CE0179
S11306E08B539F4F0E947E04B29978C00E9463008E
S11306F075C08FE59AEE0197F1F700C00000809174
S1130700440190914501009711F400E210E080E06B
S113071060E00E947504CE018B529F4F0E947E04BC
S113072080E061E00E947504CE018B559F4F0E94CA
S11307307E04B29953C00E94790050C0AFE5BAEE6E
S11307401197F1F700C00000809144019091450198
S11307508130910511F40FE110E080E060E00E9427
S11307607504CE018B549F4F0E947E0480E061E0AB
S11307700E947504CE018B539F4F0E947E04B29950
S11307802DC00E9471002AC080E060E00E947504C0
S1130790C6010E947E0487E061E00E947504CE01D8
S11307A001960E947E04B0990EC00894E11CF11CCD
S11307B0BAE1EB16F1043CF00E9449000F2EF9E176
S11307C0EF2EFF24F02DB19909C00894E108F10837
S11307D0FF2024F40E944900EE24FF248E2D880F6C
S11307E0982F990F990F890F83BD8FE792E3A2E0A9
S11307F081509040A040E1F700C00000B5CD1BBA85
S11308008FEF8ABB0895DB9AE7EEF3E03197F1F7B7
S113081000C000009BB39F709BBB9BB38295807FFD
S1130820892B8BBBDB9887EE93E00197F1F700C02F
S113083000000895CF93C82F611102C0DA9801C057
S1130840DA9A8C2F82958F700E9403048C2F0E9459
S11308500304CF91089583E00E9403042FEF89EFEE
S113086090E0215080409040E1F700C0000083E018
S11308700E9403048FEC97E00197F1F700C0000099
S113088083E00E9403048FE19EE40197F1F700C026
S1130890000082E00E9403048FE19EE40197F1F7D7
S11308A000C0000060E088E20E941A048FE19EE428
S11308B00197F1F700C0000060E08CE00E941A0488
S11308C08FE19EE40197F1F700C0000060E086E04C
S11308D00E941A048FE19EE40197F1F700C0000022
S11308E0089561E00E941A04089590E4699F800DC0
S11308F0112460E080680E941A040895CF93DF9366
S1130900EC018881882331F021960E947104899139
S11309108111FBCFDF91CF91089560E081E00E94C7
S11309201A048FE39CE90197F1F700C000000895D1
S113093012BC8EE685BD14BC13BC89B789BF08956B
S11309404532510520F4423010F00C94AB04FB0105
S11309501082CB010895BB274A3031F4992322F445
S1130960BDE2909581959F4F0C94B704BB27FB0182
S11309705527AA27880F991FAA1FA41710F0A41B94
S113098083955051B9F7A05DAA3308F0A95DA193EE
S1130990009779F7B111B1931192CB010C94D00463
S11309A0DC01FC01672F71917723E1F7329704C0D2
S11309B07C916D9370836291AE17BF07C8F308955D
S10709C0F894FFCFD5
S11309C450574D204C4544332076616C7565004C7A
S11309D44544203120202000000000000000004C89
S11309E44544203220202000000000000000005074
S11309F4574D31202000000000000000000000508A
S1130A04574D322020000000000000000000004C7C
S1130A14454420313C000000000000000000004C6C
S1130A24454420323C000000000000000000004C5B
S1130A34454420333C000000000000000000005046
S1130A44574D31203C00000000000000000000501D
S1130A54574D32203C000000000000000000004F0D
S1130A646E20202020200000000000000000004F21
S1130A746666202020200000000000000000004FD3
S1130A846E203C2020000000000000000000004F05
S1130A9466663C2020000000000000000000000006
S9030000FC
