:1000000012C02CC02BC02AC029C028C027C026C0BF
:1000100025C024C023C022C021C020C01FC01EC0D4
:100020001DC01CC01BC011241FBECFE5D4E0DEBF25
:10003000CDBF10E0A0E6B0E0E8E8F2E002C0059035
:100040000D92A036B107D9F710E0A0E6B0E001C0EC
:100050001D92A036B107E1F702D014C1D1CF0FD065
:1000600060E070E08AEF95E41CD08FE59AEEA0E0A6
:1000700081509040A040E1F700C00000F1CF87B36D
:100080008C6287BBC29A8DB182658DB90895C29882
:1000900099E19FB9779BFECF8FB9779BFECFC29A2C
:1000A000089522E430E645EE5CE361D00BD0C298BF
:1000B00089E18FB9779BFECF60956FB9779BFECFB3
:1000C000C29A089533D088F09F5790F0B92F99279E
:1000D000B751A0F0D1F0660F771F881F991F1AF053
:1000E000BA95C9F712C0B13081F03AD0B1E00895A5
:1000F00037C0672F782F8827B85F39F0B93FCCF326
:10010000869577956795B395D9F73EF49095809548
:10011000709561957F4F8F4F9F4F089557FD905871
:10012000440F551F59F05F3F71F04795880F97FBBB
:10013000991F61F09F3F79F0879508951216130675
:100140001406551FF2CF4695F1DF08C016161706A4
:100150001806991FF1CF86957105610508940895D9
:10016000E894BB2766277727CB0197F908950BD032
:1001700078C069D028F06ED018F0952309F05AC0E5
:100180005FC01124EECFCADFA0F3959FD1F3950F86
:1001900050E0551F629FF001729FBB27F00DB11D0B
:1001A000639FAA27F00DB11DAA1F649F6627B00D9B
:1001B000A11D661F829F2227B00DA11D621F739F84
:1001C000B00DA11D621F839FA00D611D221F749F92
:1001D0003327A00D611D231F849F600D211D822FD9
:1001E000762F6A2F11249F5750408AF0E1F0882320
:1001F0004AF0EE0FFF1FBB1F661F771F881F91502D
:100200005040A9F79E3F510570F014C0AACF5F3F40
:10021000ECF3983EDCF3869577956795B795F7955F
:10022000E7959F5FC1F7FE2B880F911D96958795E7
:1002300097F9089597F99F6780E870E060E0089566
:100240009FEF80EC089500240A94161617061806EE
:100250000906089500240A941216130614060506CA
:100260000895092E0394000C11F4882352F0BB0F5B
:1002700040F4BF2B11F460FF04C06F5F7F4F8F4FBE
:080280009F4F0895F894FFCF91
:00000001FF
