:1000000012C02CC02BC02AC029C028C027C026C0BF
:1000100025C024C023C022C021C020C01FC01EC0D4
:100020001DC01CC01BC011241FBECFE5D4E0DEBF25
:10003000CDBF10E0A0E6B0E0E8E6F2E002C0059037
:100040000D92AC36B107D9F710E0ACE6B0E001C0D4
:100050001D92AC36B107E1F78FD004C1D1CF12BAEF
:100060008FEF81BB0895939AE7EEF3E03197F1F7B4
:1000700000C0000092B39F7092BB92B38295807FC4
:10008000892B82BB939887EE93E00197F1F700C02C
:1000900000000895CF93C82F662311F4929801C0F1
:1000A000929A8C2F82958F70DEDF8C2FDCDFCF91C0
:1000B000089583E0D8DF8FEF99EFA0E08150904062
:1000C000A040E1F700C0000083E0CDDFAFECB7E077
:1000D0001197F1F700C0000083E0C5DF8FE19EE4D7
:1000E0000197F1F700C0000082E0BDDFAFE1BEE4A0
:1000F0001197F1F700C0000088E260E0CBDF8FE1EC
:100100009EE40197F1F700C000008CE060E0C2DFE0
:10011000AFE1BEE41197F1F700C0000086E060E0B7
:10012000B9DF8FE19EE40197F1F700C00000089568
:1001300061E0B0DF08956295660F660F607C860F00
:10014000806860E0A7DF0895CF93DF93EC0188819A
:10015000882329F02196ECDF89918823E1F7DF914C
:10016000CF91089581E060E095DF8FE39CE90197EE
:10017000F1F700C000000895CF93DF93CDB7DEB74D
:100180002A970FB6F894DEBF0FBECDBF68DF91DFB0
:1001900080E060E0D0DFE6DF80E690E0D5DF00E0E1
:1001A00010E0EE24FF24DEDFC801BE016F5F7F4F49
:1001B0004AE050E014D0CE010196C6DF8FEF93EFF6
:1001C000A1E081509040A040E1F700C000000F5F27
:1001D0001F4F97E20031190734F38701E4CFFB0189
:1001E0009F01E8944230BCF04532ACF44A3029F427
:1001F00097FB1EF4909581959F4F642F77271ED013
:10020000805D8A330CF0895D8193CB010097A9F75B
:1002100016F45DE251931082C90100C0DC01FC01BB
:10022000672F71917723E1F7329704C07C916D932A
:1002300070836291AE17BF07C8F30895AA1BBB1B5A
:1002400051E107C0AA1FBB1FA617B70710F0A61BD6
:10025000B70B881F991F5A95A9F780959095BC01F7
:08026000CD010895F894FFCFD1
:0C02680048656C6C6F20576F726C64006E
:00000001FF
