:1000000012C02CC02BC02AC029C028C036C026C0B0
:1000100025C024C023C022C021C020C01FC01EC0D4
:100020001DC01CC01BC011241FBECFE5D4E0DEBF25
:10003000CDBF10E0A0E6B0E0E6EAF0E002C0059037
:100040000D92A036B107D9F710E0A0E6B0E001C0EC
:100050001D92A136B107E1F71FD023C0D1CF8EB5D5
:1000600088608EBD89B7806189BF88E08BBD8DE3D4
:100070008ABD8EB584608EBD08951F920F920FB613
:100080000F9211248F9385B3809585BB8F910F902C
:100090000FBE0F901F9018958FEF84BBE0DF789410
:0600A000FFCFF894FFCF32
:00000001FF
