:100000000C942A000C943F000C943F000C943F0089
:100010000C943F000C943F000C943F000C943F0064
:100020000C943F000C943F000C943F000C943F0054
:100030000C943F000C943F000C943F000C943F0044
:100040000C943F000C943F000C943F000C943F0034
:100050000C943F0011241FBECFE5D4E0DEBFCDBF1E
:1000600010E0A0E6B0E0E2EEF5E002C005900D92EF
:10007000A636B107D9F70E944E000C94EF020C94FB
:10008000000086B1876886B987B1806C87B908950A
:10009000369A3699FECF84B195B108950E944100F9
:1000A0000E94E4000E944801CDEC0E9448007C01BF
:1000B00060E080E00E94300180E690E00E9439011B
:1000C00060E088E00E943001B70180E090E00E948B
:1000D000F40120E030E048EC53E40E9453016B014E
:1000E0007C010E94C50180E3860F0E942C018EE2F4
:1000F0000E942C0120E030E040E251E4C701B6014B
:100100000E9482020E94C5016C9F912D1124969538
:1001100096959695990F892F880F880F980F862F9F
:10012000891B805D0E942C0120E030E048EC52E405
:10013000C701B6010E9482020E94C5016C9F912DE9
:100140001124969596959695990F892F880F880F6B
:10015000980F862F891B805D0E942C012FEF84E36E
:100160009CE0215080409040E1F700C000009DCF0E
:1001700018BA8FEF87BB0895C39AE7EEF3E0319783
:10018000F1F700C0000098B39F7098BB98B38295B8
:10019000807F892B88BBC39887EE93E00197F1F7A6
:1001A00000C000000895CF93C82F611102C0C2980B
:1001B00001C0C29A8C2F82958F700E94BC008C2F38
:1001C0000E94BC00CF9108950E94B80083E00E9475
:1001D000BC002FEF89EF90E0215080409040E1F784
:1001E00000C0000083E00E94BC008FEC97E0019704
:1001F000F1F700C0000083E00E94BC008FE19EE4A4
:100200000197F1F700C0000082E00E94BC008FE17E
:100210009EE40197F1F700C0000060E088E20E94D0
:10022000D3008FE19EE40197F1F700C0000060E089
:100230008CE00E94D3008FE19EE40197F1F700C0AB
:10024000000060E086E00E94D3008FE19EE4019709
:10025000F1F700C00000089561E00E94D300089506
:1002600090E4699F800D112460E080680E94D300B3
:100270000895CF93DF93EC018881882331F0219694
:100280000E942C0189918111FBCFDF91CF910895BC
:1002900060E081E00E94D3008FE39CE90197F1F7D1
:1002A00000C0000008950E9467010C9448020E945B
:1002B000410258F00E943A0240F029F45F3F29F0D1
:1002C0000C94310251110C947C020C9437020E9460
:1002D000590268F39923B1F3552391F3951B550BFC
:1002E000BB27AA2762177307840738F09F5F5F4F09
:1002F000220F331F441FAA1FA9F335D00E2E3AF048
:10030000E0E832D091505040E695001CCAF72BD05F
:10031000FE2F29D0660F771F881FBB1F26173707B0
:100320004807AB07B0E809F0BB0B802DBF01FF27E2
:1003300093585F4F3AF09E3F510578F00C9431028C
:100340000C947C025F3FE4F3983ED4F38695779556
:100350006795B795F7959F5FC9F7880F911D96959B
:10036000879597F90895E1E0660F771F881FBB1FF7
:10037000621773078407BA0720F0621B730B840BA4
:10038000BA0BEE1F88F7E09508950E94610288F08D
:100390009F5798F0B92F9927B751B0F0E1F0660F49
:1003A000771F881F991F1AF0BA95C9F714C0B1308A
:1003B00091F00E947B02B1E008950C947B02672FBC
:1003C000782F8827B85F39F0B93FCCF386957795B9
:1003D0006795B395D9F73EF49095809570956195A2
:1003E0007F4F8F4F9F4F0895E89409C097FB3EF4CD
:1003F00090958095709561957F4F8F4F9F4F992372
:10040000A9F0F92F96E9BB279395F69587957795EF
:100410006795B795F111F8CFFAF4BB0F11F460FFAF
:100420001BC06F5F7F4F8F4F9F4F16C0882311F007
:1004300096E911C0772321F09EE8872F762F05C01B
:10044000662371F096E8862F70E060E02AF09A95B6
:10045000660F771F881FDAF7880F9695879597F9AB
:10046000089597F99F6780E870E060E008959FEF36
:1004700080EC089500240A9416161706180609063B
:10048000089500240A94121613061406050608950A
:10049000092E0394000C11F4882352F0BB0F40F492
:1004A000BF2B11F460FF04C06F5F7F4F8F4F9F4FD2
:1004B000089557FD9058440F551F59F05F3F71F054
:1004C0004795880F97FB991F61F09F3F79F08795BB
:1004D0000895121613061406551FF2CF4695F1DF44
:1004E00008C0161617061806991FF1CF86957105D4
:1004F000610508940895E894BB2766277727CB0108
:1005000097F908950E9495020C9448020E943A02BD
:1005100038F00E94410220F0952311F00C94310232
:100520000C94370211240C947C020E94590270F33F
:10053000959FC1F3950F50E0551F629FF001729F88
:10054000BB27F00DB11D639FAA27F00DB11DAA1F97
:10055000649F6627B00DA11D661F829F2227B00DE4
:10056000A11D621F739FB00DA11D621F839FA00D6F
:10057000611D221F749F3327A00D611D231F849FBF
:10058000600D211D822F762F6A2F11249F57504016
:100590009AF0F1F088234AF0EE0FFF1FBB1F661F91
:1005A000771F881F91505040A9F79E3F510580F05A
:1005B0000C9431020C947C025F3FE4F3983ED4F338
:1005C000869577956795B795F795E7959F5FC1F7FE
:1005D000FE2B880F911D9695879597F90895F894AD
:0205E000FFCF4B
:0605E200D09FD180000053
:00000001FF
