:1000000012C02CC02BC02AC029C028C027C026C0BF
:1000100025C024C023C022C021C020C01FC01EC0D4
:100020001DC01CC01BC011241FBECFE5D4E0DEBF25
:10003000CDBF10E0A0E6B0E0EAECF0E002C0059031
:100040000D92A036B107D9F710E0A0E6B0E001C0EC
:100050001D92A036B107E1F706D035C0D1CF18BA4E
:1000600088E087BB0895FBDF26D081E083BD40E0B8
:1000700050E08BEF90E020E030E00BC063B56F5FA5
:1000800063BDE7EAF1E63197F1F700C000004F5F8A
:100090005F4F4B3F510594F3AC0163B5615063BDB5
:1000A000E7EAF1E63197F1F700C000004150504017
:1000B000A1F7A901EECF12BC8EE685BD14BC13BC1E
:0A00C00089B789BF0895F894FFCFB7
:00000001FF
