:1000000012C02CC02BC02AC029C028C027C026C0BF
:1000100025C024C023C022C021C020C01FC01EC0D4
:100020001DC01CC01BC011241FBECFE5D4E0DEBF25
:10003000CDBF10E0A0E6B0E0E2EAF0E002C005903B
:100040000D92A036B107D9F710E0A0E6B0E001C0EC
:100050001D92A036B107E1F712D021C0D1CF87B3EE
:100060008C6287BB88B388BB08958DB180658DB9DC
:1000700008958FB9779BFECFC29AC2980895EFDF9B
:10008000F4DFC0E08C2FF5DFCF5F8FE798E3A1E0CE
:1000900081509040A040E1F700C00000F3CFF894F9
:0200A000FFCF90
:00000001FF
