:1000000012C02CC02BC02AC029C028C027C026C0BF
:1000100025C024C023C022C021C020C01FC01EC0D4
:100020001DC01CC01BC011241FBECFE5D4E0DEBF25
:10003000CDBF11E0A0E6B0E0E0EEF0E002C0059038
:100040000D92A036B107D9F711E0A0E6B1E001C0EA
:100050001D92A236B107E1F70BD040C0D1CFBB9AB9
:1000600012BC89E685BD14BC13BC89B789BF08954D
:10007000CF93DF93CDB7DEB7C050D1400FB6F89421
:10008000DEBF0FBECDBFDE011196E0E6F0E080E0FE
:1000900091E001900D920197E1F7E1DF809160011D
:1000A00090916101FC01EE0FFF1F21E030E02C0F69
:1000B0003D1FE20FF31F208123BD01969093610144
:1000C000809360018038910524F0109261011092B4
:1000D00060013AE13A95F1F700C0E0CFF894FFCF24
:1000E0007F0086008C00920098009E00A400AA0069
:1000F000B000B600BB00C100C600CB00D000D500E8
:10010000D900DE00E200E600E900EC00F000F200B9
:10011000F500F700F900FB00FC00FD00FE00FE000A
:10012000FE00FE00FE00FD00FC00FB00F900F700F1
:10013000F500F200F000EC00E900E600E200DE006D
:10014000D900D500D000CB00C600C100BB00B6006E
:10015000B000AA00A4009E00980092008C008600C7
:100160007F00790073006D00670061005B0055003F
:100170004F00490044003E00390034002F002A009F
:10018000260021001D001900160013000F000D00AD
:100190000A0008000600040003000200010001003C
:1001A0000000010001000200030004000600080036
:1001B0000A000D000F001300160019001D00210099
:1001C00026002A002F00340039003E004400490078
:1001D0004F0055005B00610067006D0073007900FF
:00000001FF
