:1000000012C02CC02BC02AC029C028C027C026C0BF
:1000100025C024C023C022C021C020C01FC01EC0D4
:100020001DC01CC01BC011241FBECFE5D4E0DEBF25
:10003000CDBF10E0A0E6B0E0EEE5F2E002C0059032
:100040000D92A036B107D9F710E0A0E6B0E001C0EC
:100050001D92A136B107E1F735D0FFC0D1CF83B9EA
:1000600084E886BF06B607FEFDCF21B1287F81E078
:1000700090E0283211F480E090E008951092600042
:1000800084EC86BF06B607FEFDCF81B1887F803540
:1000900021F081E08093600002C01092600083B183
:1000A000089584E886BF06B607FEFDCF81B1887F3C
:1000B000883521F081E08093600002C010926000DA
:1000C00083B10895AF92BF92CF92DF92EF92FF92E9
:1000D0000F931F93CF93DF93CDB7DEB7A0970FB6E3
:1000E000F894DEBF0FBECDBF80E3898381E38A83AE
:1000F00082E38B8383E38C8384E38D8385E38E8328
:1001000086E38F8387E3888788E3898789E38A8703
:100110008AE38B878BE38C878CE38D878EE38F87D5
:100120008FE3888B80E4898B81E48A8B82E48B8BDC
:1001300083E48C8B84E48D8B85E48E8B86E48F8BBB
:1001400087E4888F88E4898F89E48A8F8AE48B8F9B
:100150008BE48C8F8CE48D8F8DE48E8F8EE48F8F6B
:100160008FE488A35CD048D04AD081B160D080EAC7
:100170004FD081B15CD080E04BD081B158D080E0CD
:1001800047D081B154D03BD081B151D081EA40D029
:1001900081B14DD06E010894C11CD11C56018E0155
:1001A000005E1F4F76016ADFF70181937F01E01740
:1001B000F107C9F776DF88A328D081B138D085014F
:1001C000005E1F4FF60181916F0131D0C016D1063C
:1001D000C9F780E090E0A0960FB6F894DEBF0FBE9E
:1001E000CDBFDF91CF911F910F91FF90EF90DF90E6
:1001F000CF90BF90AF90089580E280B9089584EACF
:1002000086BF06B607FEFDCF089584E986BF089530
:1002100083B984E886BF06B607FEFDCF089510BCFB
:1002200083E389B988E98AB986EB80BD08955D9B2F
:10023000FECF8CB90895CF93DF93EC01888188239A
:1002400029F02196F4DF89918823E1F78DE0EFDF33
:0E0250008AE0EDDFDF91CF910895F894FFCFA3
:00000001FF
